{
  "contractName": "Child",
  "abi": [
    {
      "anonymous": false,
      "inputs": [
        {
          "indexed": true,
          "internalType": "address",
          "name": "from",
          "type": "address"
        },
        {
          "indexed": true,
          "internalType": "address",
          "name": "to",
          "type": "address"
        }
      ],
      "name": "GroupTransferred",
      "type": "event"
    },
    {
      "anonymous": false,
      "inputs": [
        {
          "indexed": true,
          "internalType": "address",
          "name": "_from",
          "type": "address"
        },
        {
          "indexed": true,
          "internalType": "address",
          "name": "_to",
          "type": "address"
        }
      ],
      "name": "OwnershipTransferred",
      "type": "event"
    },
    {
      "constant": false,
      "inputs": [
        {
          "internalType": "bytes",
          "name": "gname",
          "type": "bytes"
        },
        {
          "internalType": "address",
          "name": "user",
          "type": "address"
        },
        {
          "internalType": "int8",
          "name": "priority",
          "type": "int8"
        }
      ],
      "name": "CGroupMod",
      "outputs": [
        {
          "internalType": "bool",
          "name": "",
          "type": "bool"
        }
      ],
      "payable": false,
      "stateMutability": "nonpayable",
      "type": "function"
    },
    {
      "constant": false,
      "inputs": [],
      "name": "acceptOwnership",
      "outputs": [],
      "payable": false,
      "stateMutability": "nonpayable",
      "type": "function"
    },
    {
      "constant": true,
      "inputs": [
        {
          "internalType": "bytes",
          "name": "",
          "type": "bytes"
        },
        {
          "internalType": "address",
          "name": "",
          "type": "address"
        }
      ],
      "name": "groups",
      "outputs": [
        {
          "internalType": "int8",
          "name": "",
          "type": "int8"
        }
      ],
      "payable": false,
      "stateMutability": "view",
      "type": "function"
    },
    {
      "constant": true,
      "inputs": [],
      "name": "newOwner",
      "outputs": [
        {
          "internalType": "address",
          "name": "",
          "type": "address"
        }
      ],
      "payable": false,
      "stateMutability": "view",
      "type": "function"
    },
    {
      "constant": true,
      "inputs": [],
      "name": "owner",
      "outputs": [
        {
          "internalType": "address",
          "name": "",
          "type": "address"
        }
      ],
      "payable": false,
      "stateMutability": "view",
      "type": "function"
    },
    {
      "constant": true,
      "inputs": [],
      "name": "root",
      "outputs": [
        {
          "internalType": "address",
          "name": "",
          "type": "address"
        }
      ],
      "payable": false,
      "stateMutability": "view",
      "type": "function"
    },
    {
      "constant": false,
      "inputs": [
        {
          "internalType": "address",
          "name": "_newOwner",
          "type": "address"
        }
      ],
      "name": "transferOwnership",
      "outputs": [],
      "payable": false,
      "stateMutability": "nonpayable",
      "type": "function"
    },
    {
      "constant": false,
      "inputs": [
        {
          "internalType": "address",
          "name": "newroot",
          "type": "address"
        }
      ],
      "name": "setRoot",
      "outputs": [
        {
          "internalType": "bool",
          "name": "",
          "type": "bool"
        }
      ],
      "payable": false,
      "stateMutability": "nonpayable",
      "type": "function"
    }
  ],
  "bytecode": "0x6080604052336000806101000a81548173ffffffffffffffffffffffffffffffffffffffff021916908373ffffffffffffffffffffffffffffffffffffffff160217905550610c5f806100536000396000f3fe608060405234801561001057600080fd5b50600436106100875760003560e01c80638da5cb5b1161005b5780638da5cb5b146102e7578063d4ee1d9014610331578063ebf0c7171461037b578063f2fde38b146103c557610087565b80623ba1ed1461008c57806379ba5097146100e85780637ac97958146100f257806387c961f4146101e7575b600080fd5b6100ce600480360360208110156100a257600080fd5b81019080803573ffffffffffffffffffffffffffffffffffffffff169060200190929190505050610409565b604051808215151515815260200191505060405180910390f35b6100f0610555565b005b6101cb6004803603604081101561010857600080fd5b810190808035906020019064010000000081111561012557600080fd5b82018360208201111561013757600080fd5b8035906020019184600183028401116401000000008311171561015957600080fd5b91908080601f016020809104026020016040519081016040528093929190818152602001838380828437600081840152601f19601f820116905080830192505050505050509192919290803573ffffffffffffffffffffffffffffffffffffffff1690602001909291905050506106f2565b604051808260000b60000b815260200191505060405180910390f35b6102cd600480360360608110156101fd57600080fd5b810190808035906020019064010000000081111561021a57600080fd5b82018360208201111561022c57600080fd5b8035906020019184600183028401116401000000008311171561024e57600080fd5b91908080601f016020809104026020016040519081016040528093929190818152602001838380828437600081840152601f19601f820116905080830192505050505050509192919290803573ffffffffffffffffffffffffffffffffffffffff169060200190929190803560000b9060200190929190505050610737565b604051808215151515815260200191505060405180910390f35b6102ef610a4d565b604051808273ffffffffffffffffffffffffffffffffffffffff1673ffffffffffffffffffffffffffffffffffffffff16815260200191505060405180910390f35b610339610a72565b604051808273ffffffffffffffffffffffffffffffffffffffff1673ffffffffffffffffffffffffffffffffffffffff16815260200191505060405180910390f35b610383610a98565b604051808273ffffffffffffffffffffffffffffffffffffffff1673ffffffffffffffffffffffffffffffffffffffff16815260200191505060405180910390f35b610407600480360360208110156103db57600080fd5b81019080803573ffffffffffffffffffffffffffffffffffffffff169060200190929190505050610abe565b005b60006040518060400160405280600c81526020017f6368696c645f6d616e616765000000000000000000000000000000000000000081525060028060000b6002836040518082805190602001908083835b6020831061047d578051825260208201915060208101905060208303925061045a565b6001836020036101000a038019825116818451168082178552505050505050905001915050908152602001604051809103902060003373ffffffffffffffffffffffffffffffffffffffff1673ffffffffffffffffffffffffffffffffffffffff16815260200190815260200160002060009054906101000a900460000b60000b121561050957600080fd5b83600360006101000a81548173ffffffffffffffffffffffffffffffffffffffff021916908373ffffffffffffffffffffffffffffffffffffffff160217905550600192505050919050565b600160009054906101000a900473ffffffffffffffffffffffffffffffffffffffff1673ffffffffffffffffffffffffffffffffffffffff163373ffffffffffffffffffffffffffffffffffffffff16146105af57600080fd5b600160009054906101000a900473ffffffffffffffffffffffffffffffffffffffff1673ffffffffffffffffffffffffffffffffffffffff166000809054906101000a900473ffffffffffffffffffffffffffffffffffffffff1673ffffffffffffffffffffffffffffffffffffffff167f8be0079c531659141344cd1fd0a4f28419497f9722a3daafe3b4186f6b6457e060405160405180910390a3600160009054906101000a900473ffffffffffffffffffffffffffffffffffffffff166000806101000a81548173ffffffffffffffffffffffffffffffffffffffff021916908373ffffffffffffffffffffffffffffffffffffffff1602179055506000600160006101000a81548173ffffffffffffffffffffffffffffffffffffffff021916908373ffffffffffffffffffffffffffffffffffffffff160217905550565b6002828051602081018201805184825260208301602085012081835280955050505050506020528060005260406000206000915091509054906101000a900460000b81565b600083836002826040518082805190602001908083835b60208310610771578051825260208201915060208101905060208303925061074e565b6001836020036101000a038019825116818451168082178552505050505050905001915050908152602001604051809103902060008273ffffffffffffffffffffffffffffffffffffffff1673ffffffffffffffffffffffffffffffffffffffff16815260200190815260200160002060009054906101000a900460000b60000b6002836040518082805190602001908083835b602083106108285780518252602082019150602081019050602083039250610805565b6001836020036101000a038019825116818451168082178552505050505050905001915050908152602001604051809103902060003373ffffffffffffffffffffffffffffffffffffffff1673ffffffffffffffffffffffffffffffffffffffff16815260200190815260200160002060009054906101000a900460000b60000b138061090157506000809054906101000a900473ffffffffffffffffffffffffffffffffffffffff1673ffffffffffffffffffffffffffffffffffffffff163373ffffffffffffffffffffffffffffffffffffffff16145b61090a57600080fd5b8360000b6002876040518082805190602001908083835b602083106109445780518252602082019150602081019050602083039250610921565b6001836020036101000a038019825116818451168082178552505050505050905001915050908152602001604051809103902060003373ffffffffffffffffffffffffffffffffffffffff1673ffffffffffffffffffffffffffffffffffffffff16815260200190815260200160002060009054906101000a900460000b60000b1380610a1d57506000809054906101000a900473ffffffffffffffffffffffffffffffffffffffff1673ffffffffffffffffffffffffffffffffffffffff163373ffffffffffffffffffffffffffffffffffffffff16145b610a2657600080fd5b610a31868686610b5b565b15610a3f5760019250610a44565b600092505b50509392505050565b6000809054906101000a900473ffffffffffffffffffffffffffffffffffffffff1681565b600160009054906101000a900473ffffffffffffffffffffffffffffffffffffffff1681565b600360009054906101000a900473ffffffffffffffffffffffffffffffffffffffff1681565b6000809054906101000a900473ffffffffffffffffffffffffffffffffffffffff1673ffffffffffffffffffffffffffffffffffffffff163373ffffffffffffffffffffffffffffffffffffffff1614610b1757600080fd5b80600160006101000a81548173ffffffffffffffffffffffffffffffffffffffff021916908373ffffffffffffffffffffffffffffffffffffffff16021790555050565b6000816002856040518082805190602001908083835b60208310610b945780518252602082019150602081019050602083039250610b71565b6001836020036101000a038019825116818451168082178552505050505050905001915050908152602001604051809103902060008573ffffffffffffffffffffffffffffffffffffffff1673ffffffffffffffffffffffffffffffffffffffff16815260200190815260200160002060006101000a81548160ff021916908360000b60ff16021790555060019050939250505056fea265627a7a72315820dd94d0e0267d70a819a7e1f5e88ba7464b9c28a3bc54525505e38f522d4a2fd764736f6c634300050c0032",
  "source": "/*\n\nCopyright Daniel Iwo, 2020\n*/\n\n\npragma solidity ^0.5.8;\n\ncontract Owned{\n\taddress public owner;\n\taddress public newOwner;\n\t\n\tevent OwnershipTransferred(address indexed _from, address indexed _to);\n\t\n\tconstructor() public{\n\t\towner=msg.sender;\t\n\t}\n\tmodifier onlyOwner{\n\t\trequire(msg.sender==owner);\n\t\t_;\t\n\t}\n\tfunction transferOwnership(address _newOwner) public onlyOwner\n\t{\n\t\tnewOwner=_newOwner;\t\n\t}\n\tfunction acceptOwnership() public{\n\t\trequire(msg.sender==newOwner);\n\t\temit OwnershipTransferred(owner,newOwner);\n\t\towner=newOwner;\n\t\tnewOwner=address(0);\t\n\t}\n\n}\n\ncontract GroupOwned is Owned{\n    \n    event GroupTransferred(address indexed from,address indexed to);\n    \n    //0 for not in , integers count the increasing priority in the group \n    mapping(bytes => mapping(address => int8)) public groups;\n    \n    modifier onlySuperior(bytes memory gname,address subject){\n        require((groups[gname][msg.sender]>groups[gname][subject])||(msg.sender==owner));\n        _;\n    }\n    \n    modifier onlyGroup(bytes memory gname,int8 level)\n    {\n        require(groups[gname][msg.sender]>=level);\n        _;\n    }\n   \n    function groupmod(bytes memory gname,address user,int8 priority) internal returns(bool)\n    {\n        groups[gname][user]=priority;\n        return true;\n    }\n\n    function CGroupMod(bytes memory gname, address user,int8 priority) public onlySuperior(gname,user) returns(bool)\n    {\t\t  \n\t\t  require((groups[gname][msg.sender]>priority)||(msg.sender==owner));\n        if(groupmod(gname,user,priority))\n        {\n            return true;\n        }\n        return false;\n    }  \n }\n \ncontract Child is Owned,GroupOwned\n{\n\taddress public root;\n\t\n\tfunction setRoot(address newroot) public onlyGroup('child_manage',2) returns(bool)\n\t{\n\t\troot=newroot;\n\t\treturn true;\t\n\t}\n} \n\n//owned groupowned\ncontract Registry is Owned,GroupOwned,Child\n{\n\tstring public locale;\n\tstring public focus;\n\t\n\tuint public severity_level;\n\t\n\t//mapping(uint=>)\n\tuint public casecount;\t\n\t\n\tmapping(uint=>address) public entities;\n\t\n\tevent NewCase(uint indexed longitude,uint indexed latitude,uint indexed time,bytes data,address et);\n\tevent RequestSupport(uint indexed longitude,uint indexed latitude,string  indexed asset,uint amount,address et);\n\tevent SeverityLevel(uint indexed level,address indexed et);\n\tevent Message(string indexed message,address indexed et);\n\tevent EntitySet(uint indexed ind,address indexed et);\n\n\tconstructor() public\n\t{\n\t\towner=msg.sender;\n\t\tgroupmod('manage',owner,1);\n\t\tgroupmod('sentinel',owner,1);\n\t}\n\n\t//only new\n\tfunction newCase(uint long,uint lat,uint time,bytes memory data) public onlyGroup('sentinel',1) returns(bool)\n\t{\n\t\temit NewCase(long,lat,time,data,msg.sender);\n\t\treturn true;\n\t}\n\n\tfunction requestSupport(uint longitude,uint latitude,string memory asset,uint amount) public onlyGroup('sentinel',1) returns(bool)\n\t{\n\t\temit RequestSupport(longitude,latitude,asset,amount,msg.sender);\n\t\treturn true;\n\t}\n\n\tfunction severityLevel(uint level) public onlyGroup('sentinel',1) returns(bool)\n\t{\n\t\tseverity_level=level;\n\t\temit SeverityLevel(level,msg.sender);\n\t\treturn true;\n\t}\n\n\tfunction message(string memory _msg) public onlyGroup('sentinel',1) returns(bool)\n\t{\n\t\temit Message(_msg,msg.sender);\n\t\treturn true;\n\t}\n\n\tfunction setLocale(string memory _locale) public onlyGroup('manage',1) returns(bool)\n\t{\n\t\tlocale=_locale;\n\t\treturn true;\n\t}\n\n\tfunction setFocus(string memory _focus) public onlyGroup('manage',1) returns(bool)\n\t{\n\t\tfocus=_focus;\n\t\treturn true;\n\t}\n\n\tfunction setEntity(uint ind,address et) public onlyGroup('manage',1) returns(bool)\n\t{\n\t\tentities[ind]=et;\n\t\temit EntitySet(ind,et);\n\t\treturn true;\n\t}\n\n\n}\n\n",
  "sourcePath": "/home/isdl/Documents/Apps/ETHLondon2020/HealthWarn/contracts/registry.sol",
  "compiler": {
    "name": "solc",
    "version": "0.5.12+commit.7709ece9.Emscripten.clang"
  },
  "schemaVersion": "3.0.18",
  "updatedAt": "2020-03-01T03:43:17.677Z",
  "devdoc": {
    "methods": {}
  },
  "userdoc": {
    "methods": {}
  }
}