{
  "contractName": "Registry",
  "abi": [
    {
      "inputs": [],
      "payable": false,
      "stateMutability": "nonpayable",
      "type": "constructor"
    },
    {
      "anonymous": false,
      "inputs": [
        {
          "indexed": true,
          "internalType": "uint256",
          "name": "ind",
          "type": "uint256"
        },
        {
          "indexed": true,
          "internalType": "address",
          "name": "et",
          "type": "address"
        }
      ],
      "name": "EntitySet",
      "type": "event"
    },
    {
      "anonymous": false,
      "inputs": [
        {
          "indexed": true,
          "internalType": "address",
          "name": "from",
          "type": "address"
        },
        {
          "indexed": true,
          "internalType": "address",
          "name": "to",
          "type": "address"
        }
      ],
      "name": "GroupTransferred",
      "type": "event"
    },
    {
      "anonymous": false,
      "inputs": [
        {
          "indexed": true,
          "internalType": "string",
          "name": "message",
          "type": "string"
        },
        {
          "indexed": true,
          "internalType": "address",
          "name": "et",
          "type": "address"
        }
      ],
      "name": "Message",
      "type": "event"
    },
    {
      "anonymous": false,
      "inputs": [
        {
          "indexed": true,
          "internalType": "uint256",
          "name": "longitude",
          "type": "uint256"
        },
        {
          "indexed": true,
          "internalType": "uint256",
          "name": "latitude",
          "type": "uint256"
        },
        {
          "indexed": true,
          "internalType": "uint256",
          "name": "time",
          "type": "uint256"
        },
        {
          "indexed": false,
          "internalType": "bytes",
          "name": "data",
          "type": "bytes"
        },
        {
          "indexed": false,
          "internalType": "address",
          "name": "et",
          "type": "address"
        }
      ],
      "name": "NewCase",
      "type": "event"
    },
    {
      "anonymous": false,
      "inputs": [
        {
          "indexed": true,
          "internalType": "address",
          "name": "_from",
          "type": "address"
        },
        {
          "indexed": true,
          "internalType": "address",
          "name": "_to",
          "type": "address"
        }
      ],
      "name": "OwnershipTransferred",
      "type": "event"
    },
    {
      "anonymous": false,
      "inputs": [
        {
          "indexed": true,
          "internalType": "uint256",
          "name": "longitude",
          "type": "uint256"
        },
        {
          "indexed": true,
          "internalType": "uint256",
          "name": "latitude",
          "type": "uint256"
        },
        {
          "indexed": true,
          "internalType": "string",
          "name": "asset",
          "type": "string"
        },
        {
          "indexed": false,
          "internalType": "uint256",
          "name": "amount",
          "type": "uint256"
        },
        {
          "indexed": false,
          "internalType": "address",
          "name": "et",
          "type": "address"
        }
      ],
      "name": "RequestSupport",
      "type": "event"
    },
    {
      "anonymous": false,
      "inputs": [
        {
          "indexed": true,
          "internalType": "uint256",
          "name": "level",
          "type": "uint256"
        },
        {
          "indexed": true,
          "internalType": "address",
          "name": "et",
          "type": "address"
        }
      ],
      "name": "SeverityLevel",
      "type": "event"
    },
    {
      "constant": false,
      "inputs": [
        {
          "internalType": "bytes",
          "name": "gname",
          "type": "bytes"
        },
        {
          "internalType": "address",
          "name": "user",
          "type": "address"
        },
        {
          "internalType": "int8",
          "name": "priority",
          "type": "int8"
        }
      ],
      "name": "CGroupMod",
      "outputs": [
        {
          "internalType": "bool",
          "name": "",
          "type": "bool"
        }
      ],
      "payable": false,
      "stateMutability": "nonpayable",
      "type": "function"
    },
    {
      "constant": false,
      "inputs": [],
      "name": "acceptOwnership",
      "outputs": [],
      "payable": false,
      "stateMutability": "nonpayable",
      "type": "function"
    },
    {
      "constant": true,
      "inputs": [],
      "name": "casecount",
      "outputs": [
        {
          "internalType": "uint256",
          "name": "",
          "type": "uint256"
        }
      ],
      "payable": false,
      "stateMutability": "view",
      "type": "function"
    },
    {
      "constant": true,
      "inputs": [
        {
          "internalType": "uint256",
          "name": "",
          "type": "uint256"
        }
      ],
      "name": "entities",
      "outputs": [
        {
          "internalType": "address",
          "name": "",
          "type": "address"
        }
      ],
      "payable": false,
      "stateMutability": "view",
      "type": "function"
    },
    {
      "constant": true,
      "inputs": [],
      "name": "focus",
      "outputs": [
        {
          "internalType": "string",
          "name": "",
          "type": "string"
        }
      ],
      "payable": false,
      "stateMutability": "view",
      "type": "function"
    },
    {
      "constant": true,
      "inputs": [
        {
          "internalType": "bytes",
          "name": "",
          "type": "bytes"
        },
        {
          "internalType": "address",
          "name": "",
          "type": "address"
        }
      ],
      "name": "groups",
      "outputs": [
        {
          "internalType": "int8",
          "name": "",
          "type": "int8"
        }
      ],
      "payable": false,
      "stateMutability": "view",
      "type": "function"
    },
    {
      "constant": true,
      "inputs": [],
      "name": "locale",
      "outputs": [
        {
          "internalType": "string",
          "name": "",
          "type": "string"
        }
      ],
      "payable": false,
      "stateMutability": "view",
      "type": "function"
    },
    {
      "constant": true,
      "inputs": [],
      "name": "newOwner",
      "outputs": [
        {
          "internalType": "address",
          "name": "",
          "type": "address"
        }
      ],
      "payable": false,
      "stateMutability": "view",
      "type": "function"
    },
    {
      "constant": true,
      "inputs": [],
      "name": "owner",
      "outputs": [
        {
          "internalType": "address",
          "name": "",
          "type": "address"
        }
      ],
      "payable": false,
      "stateMutability": "view",
      "type": "function"
    },
    {
      "constant": true,
      "inputs": [],
      "name": "root",
      "outputs": [
        {
          "internalType": "address",
          "name": "",
          "type": "address"
        }
      ],
      "payable": false,
      "stateMutability": "view",
      "type": "function"
    },
    {
      "constant": false,
      "inputs": [
        {
          "internalType": "address",
          "name": "newroot",
          "type": "address"
        }
      ],
      "name": "setRoot",
      "outputs": [
        {
          "internalType": "bool",
          "name": "",
          "type": "bool"
        }
      ],
      "payable": false,
      "stateMutability": "nonpayable",
      "type": "function"
    },
    {
      "constant": true,
      "inputs": [],
      "name": "severity_level",
      "outputs": [
        {
          "internalType": "uint256",
          "name": "",
          "type": "uint256"
        }
      ],
      "payable": false,
      "stateMutability": "view",
      "type": "function"
    },
    {
      "constant": false,
      "inputs": [
        {
          "internalType": "address",
          "name": "_newOwner",
          "type": "address"
        }
      ],
      "name": "transferOwnership",
      "outputs": [],
      "payable": false,
      "stateMutability": "nonpayable",
      "type": "function"
    },
    {
      "constant": false,
      "inputs": [
        {
          "internalType": "uint256",
          "name": "long",
          "type": "uint256"
        },
        {
          "internalType": "uint256",
          "name": "lat",
          "type": "uint256"
        },
        {
          "internalType": "uint256",
          "name": "time",
          "type": "uint256"
        },
        {
          "internalType": "bytes",
          "name": "data",
          "type": "bytes"
        }
      ],
      "name": "newCase",
      "outputs": [
        {
          "internalType": "bool",
          "name": "",
          "type": "bool"
        }
      ],
      "payable": false,
      "stateMutability": "nonpayable",
      "type": "function"
    },
    {
      "constant": false,
      "inputs": [
        {
          "internalType": "uint256",
          "name": "longitude",
          "type": "uint256"
        },
        {
          "internalType": "uint256",
          "name": "latitude",
          "type": "uint256"
        },
        {
          "internalType": "string",
          "name": "asset",
          "type": "string"
        },
        {
          "internalType": "uint256",
          "name": "amount",
          "type": "uint256"
        }
      ],
      "name": "requestSupport",
      "outputs": [
        {
          "internalType": "bool",
          "name": "",
          "type": "bool"
        }
      ],
      "payable": false,
      "stateMutability": "nonpayable",
      "type": "function"
    },
    {
      "constant": false,
      "inputs": [
        {
          "internalType": "uint256",
          "name": "level",
          "type": "uint256"
        }
      ],
      "name": "severityLevel",
      "outputs": [
        {
          "internalType": "bool",
          "name": "",
          "type": "bool"
        }
      ],
      "payable": false,
      "stateMutability": "nonpayable",
      "type": "function"
    },
    {
      "constant": false,
      "inputs": [
        {
          "internalType": "string",
          "name": "_msg",
          "type": "string"
        }
      ],
      "name": "message",
      "outputs": [
        {
          "internalType": "bool",
          "name": "",
          "type": "bool"
        }
      ],
      "payable": false,
      "stateMutability": "nonpayable",
      "type": "function"
    },
    {
      "constant": false,
      "inputs": [
        {
          "internalType": "string",
          "name": "_locale",
          "type": "string"
        }
      ],
      "name": "setLocale",
      "outputs": [
        {
          "internalType": "bool",
          "name": "",
          "type": "bool"
        }
      ],
      "payable": false,
      "stateMutability": "nonpayable",
      "type": "function"
    },
    {
      "constant": false,
      "inputs": [
        {
          "internalType": "string",
          "name": "_focus",
          "type": "string"
        }
      ],
      "name": "setFocus",
      "outputs": [
        {
          "internalType": "bool",
          "name": "",
          "type": "bool"
        }
      ],
      "payable": false,
      "stateMutability": "nonpayable",
      "type": "function"
    },
    {
      "constant": false,
      "inputs": [
        {
          "internalType": "uint256",
          "name": "ind",
          "type": "uint256"
        },
        {
          "internalType": "address",
          "name": "et",
          "type": "address"
        }
      ],
      "name": "setEntity",
      "outputs": [
        {
          "internalType": "bool",
          "name": "",
          "type": "bool"
        }
      ],
      "payable": false,
      "stateMutability": "nonpayable",
      "type": "function"
    }
  ],
  "bytecode": "0x60806040523480156200001157600080fd5b50336000806101000a81548173ffffffffffffffffffffffffffffffffffffffff021916908373ffffffffffffffffffffffffffffffffffffffff160217905550336000806101000a81548173ffffffffffffffffffffffffffffffffffffffff021916908373ffffffffffffffffffffffffffffffffffffffff160217905550620000fc6040518060400160405280600681526020017f6d616e61676500000000000000000000000000000000000000000000000000008152506000809054906101000a900473ffffffffffffffffffffffffffffffffffffffff1660016200016e60201b60201c565b50620001676040518060400160405280600881526020017f73656e74696e656c0000000000000000000000000000000000000000000000008152506000809054906101000a900473ffffffffffffffffffffffffffffffffffffffff1660016200016e60201b60201c565b506200023f565b6000816002856040518082805190602001908083835b60208310620001a9578051825260208201915060208101905060208303925062000184565b6001836020036101000a038019825116818451168082178552505050505050905001915050908152602001604051809103902060008573ffffffffffffffffffffffffffffffffffffffff1673ffffffffffffffffffffffffffffffffffffffff16815260200190815260200160002060006101000a81548160ff021916908360000b60ff160217905550600190509392505050565b612081806200024f6000396000f3fe608060405234801561001057600080fd5b506004361061012b5760003560e01c806387c49736116100ad578063b7164bde11610071578063b7164bde146109c3578063d4ee1d9014610a09578063ebf0c71714610a53578063ec7bb03b14610a9d578063f2fde38b14610b205761012b565b806387c497361461074c57806387c961f41461076a5780638ad73f7f1461086a5780638ae81b37146108885780638da5cb5b146109795761012b565b806375a2f367116100f457806375a2f367146104065780637651947e146104f757806379ba5097146105ca5780637ac97958146105d4578063805421ed146106c95761012b565b80623ba1ed1461013057806305c766d11461018c578063587354771461025f5780636331883b1461033257806371130bca146103a0575b600080fd5b6101726004803603602081101561014657600080fd5b81019080803573ffffffffffffffffffffffffffffffffffffffff169060200190929190505050610b64565b604051808215151515815260200191505060405180910390f35b610245600480360360208110156101a257600080fd5b81019080803590602001906401000000008111156101bf57600080fd5b8201836020820111156101d157600080fd5b803590602001918460018302840111640100000000831117156101f357600080fd5b91908080601f016020809104026020016040519081016040528093929190818152602001838380828437600081840152601f19601f820116905080830192505050505050509192919290505050610cb0565b604051808215151515815260200191505060405180910390f35b6103186004803603602081101561027557600080fd5b810190808035906020019064010000000081111561029257600080fd5b8201836020820111156102a457600080fd5b803590602001918460018302840111640100000000831117156102c657600080fd5b91908080601f016020809104026020016040519081016040528093929190818152602001838380828437600081840152601f19601f820116905080830192505050505050509192919290505050610e5f565b604051808215151515815260200191505060405180910390f35b61035e6004803603602081101561034857600080fd5b8101908080359060200190929190505050610f81565b604051808273ffffffffffffffffffffffffffffffffffffffff1673ffffffffffffffffffffffffffffffffffffffff16815260200191505060405180910390f35b6103ec600480360360408110156103b657600080fd5b8101908080359060200190929190803573ffffffffffffffffffffffffffffffffffffffff169060200190929190505050610fb4565b604051808215151515815260200191505060405180910390f35b6104dd6004803603608081101561041c57600080fd5b8101908080359060200190929190803590602001909291908035906020019064010000000081111561044d57600080fd5b82018360208201111561045f57600080fd5b8035906020019184600183028401116401000000008311171561048157600080fd5b91908080601f016020809104026020016040519081016040528093929190818152602001838380828437600081840152601f19601f82011690508083019250505050505050919291929080359060200190929190505050611155565b604051808215151515815260200191505060405180910390f35b6105b06004803603602081101561050d57600080fd5b810190808035906020019064010000000081111561052a57600080fd5b82018360208201111561053c57600080fd5b8035906020019184600183028401116401000000008311171561055e57600080fd5b91908080601f016020809104026020016040519081016040528093929190818152602001838380828437600081840152601f19601f820116905080830192505050505050509192919290505050611331565b604051808215151515815260200191505060405180910390f35b6105d2611453565b005b6106ad600480360360408110156105ea57600080fd5b810190808035906020019064010000000081111561060757600080fd5b82018360208201111561061957600080fd5b8035906020019184600183028401116401000000008311171561063b57600080fd5b91908080601f016020809104026020016040519081016040528093929190818152602001838380828437600081840152601f19601f820116905080830192505050505050509192919290803573ffffffffffffffffffffffffffffffffffffffff1690602001909291905050506115f0565b604051808260000b60000b815260200191505060405180910390f35b6106d1611635565b6040518080602001828103825283818151815260200191508051906020019080838360005b838110156107115780820151818401526020810190506106f6565b50505050905090810190601f16801561073e5780820380516001836020036101000a031916815260200191505b509250505060405180910390f35b6107546116d3565b6040518082815260200191505060405180910390f35b6108506004803603606081101561078057600080fd5b810190808035906020019064010000000081111561079d57600080fd5b8201836020820111156107af57600080fd5b803590602001918460018302840111640100000000831117156107d157600080fd5b91908080601f016020809104026020016040519081016040528093929190818152602001838380828437600081840152601f19601f820116905080830192505050505050509192919290803573ffffffffffffffffffffffffffffffffffffffff169060200190929190803560000b90602001909291905050506116d9565b604051808215151515815260200191505060405180910390f35b6108726119ef565b6040518082815260200191505060405180910390f35b61095f6004803603608081101561089e57600080fd5b81019080803590602001909291908035906020019092919080359060200190929190803590602001906401000000008111156108d957600080fd5b8201836020820111156108eb57600080fd5b8035906020019184600183028401116401000000008311171561090d57600080fd5b91908080601f016020809104026020016040519081016040528093929190818152602001838380828437600081840152601f19601f8201169050808301925050505050505091929192905050506119f5565b604051808215151515815260200191505060405180910390f35b610981611bd6565b604051808273ffffffffffffffffffffffffffffffffffffffff1673ffffffffffffffffffffffffffffffffffffffff16815260200191505060405180910390f35b6109ef600480360360208110156109d957600080fd5b8101908080359060200190929190505050611bfb565b604051808215151515815260200191505060405180910390f35b610a11611d51565b604051808273ffffffffffffffffffffffffffffffffffffffff1673ffffffffffffffffffffffffffffffffffffffff16815260200191505060405180910390f35b610a5b611d77565b604051808273ffffffffffffffffffffffffffffffffffffffff1673ffffffffffffffffffffffffffffffffffffffff16815260200191505060405180910390f35b610aa5611d9d565b6040518080602001828103825283818151815260200191508051906020019080838360005b83811015610ae5578082015181840152602081019050610aca565b50505050905090810190601f168015610b125780820380516001836020036101000a031916815260200191505b509250505060405180910390f35b610b6260048036036020811015610b3657600080fd5b81019080803573ffffffffffffffffffffffffffffffffffffffff169060200190929190505050611e3b565b005b60006040518060400160405280600c81526020017f6368696c645f6d616e616765000000000000000000000000000000000000000081525060028060000b6002836040518082805190602001908083835b60208310610bd85780518252602082019150602081019050602083039250610bb5565b6001836020036101000a038019825116818451168082178552505050505050905001915050908152602001604051809103902060003373ffffffffffffffffffffffffffffffffffffffff1673ffffffffffffffffffffffffffffffffffffffff16815260200190815260200160002060009054906101000a900460000b60000b1215610c6457600080fd5b83600360006101000a81548173ffffffffffffffffffffffffffffffffffffffff021916908373ffffffffffffffffffffffffffffffffffffffff160217905550600192505050919050565b60006040518060400160405280600881526020017f73656e74696e656c00000000000000000000000000000000000000000000000081525060018060000b6002836040518082805190602001908083835b60208310610d245780518252602082019150602081019050602083039250610d01565b6001836020036101000a038019825116818451168082178552505050505050905001915050908152602001604051809103902060003373ffffffffffffffffffffffffffffffffffffffff1673ffffffffffffffffffffffffffffffffffffffff16815260200190815260200160002060009054906101000a900460000b60000b1215610db057600080fd5b3373ffffffffffffffffffffffffffffffffffffffff16846040518082805190602001908083835b60208310610dfb5780518252602082019150602081019050602083039250610dd8565b6001836020036101000a03801982511681845116808217855250505050505090500191505060405180910390207f44a869e74ff7102c6ea3d8610c21989459efde5acaa2bc3b462b7eff5557647360405160405180910390a3600192505050919050565b60006040518060400160405280600681526020017f6d616e616765000000000000000000000000000000000000000000000000000081525060018060000b6002836040518082805190602001908083835b60208310610ed35780518252602082019150602081019050602083039250610eb0565b6001836020036101000a038019825116818451168082178552505050505050905001915050908152602001604051809103902060003373ffffffffffffffffffffffffffffffffffffffff1673ffffffffffffffffffffffffffffffffffffffff16815260200190815260200160002060009054906101000a900460000b60000b1215610f5f57600080fd5b8360049080519060200190610f75929190611fa7565b50600192505050919050565b60086020528060005260406000206000915054906101000a900473ffffffffffffffffffffffffffffffffffffffff1681565b60006040518060400160405280600681526020017f6d616e616765000000000000000000000000000000000000000000000000000081525060018060000b6002836040518082805190602001908083835b602083106110285780518252602082019150602081019050602083039250611005565b6001836020036101000a038019825116818451168082178552505050505050905001915050908152602001604051809103902060003373ffffffffffffffffffffffffffffffffffffffff1673ffffffffffffffffffffffffffffffffffffffff16815260200190815260200160002060009054906101000a900460000b60000b12156110b457600080fd5b836008600087815260200190815260200160002060006101000a81548173ffffffffffffffffffffffffffffffffffffffff021916908373ffffffffffffffffffffffffffffffffffffffff1602179055508373ffffffffffffffffffffffffffffffffffffffff16857e0434692c985ca42877064eef122a8e3c8c214e5cb9dab9804fc5dc1c459eed60405160405180910390a360019250505092915050565b60006040518060400160405280600881526020017f73656e74696e656c00000000000000000000000000000000000000000000000081525060018060000b6002836040518082805190602001908083835b602083106111c957805182526020820191506020810190506020830392506111a6565b6001836020036101000a038019825116818451168082178552505050505050905001915050908152602001604051809103902060003373ffffffffffffffffffffffffffffffffffffffff1673ffffffffffffffffffffffffffffffffffffffff16815260200190815260200160002060009054906101000a900460000b60000b121561125557600080fd5b846040518082805190602001908083835b602083106112895780518252602082019150602081019050602083039250611266565b6001836020036101000a038019825116818451168082178552505050505050905001915050604051809103902086887f6c522d15f8cd118ac9f4615cf76c00a2a331c2112fb84483378ada6892d034938733604051808381526020018273ffffffffffffffffffffffffffffffffffffffff1673ffffffffffffffffffffffffffffffffffffffff1681526020019250505060405180910390a4600192505050949350505050565b60006040518060400160405280600681526020017f6d616e616765000000000000000000000000000000000000000000000000000081525060018060000b6002836040518082805190602001908083835b602083106113a55780518252602082019150602081019050602083039250611382565b6001836020036101000a038019825116818451168082178552505050505050905001915050908152602001604051809103902060003373ffffffffffffffffffffffffffffffffffffffff1673ffffffffffffffffffffffffffffffffffffffff16815260200190815260200160002060009054906101000a900460000b60000b121561143157600080fd5b8360059080519060200190611447929190611fa7565b50600192505050919050565b600160009054906101000a900473ffffffffffffffffffffffffffffffffffffffff1673ffffffffffffffffffffffffffffffffffffffff163373ffffffffffffffffffffffffffffffffffffffff16146114ad57600080fd5b600160009054906101000a900473ffffffffffffffffffffffffffffffffffffffff1673ffffffffffffffffffffffffffffffffffffffff166000809054906101000a900473ffffffffffffffffffffffffffffffffffffffff1673ffffffffffffffffffffffffffffffffffffffff167f8be0079c531659141344cd1fd0a4f28419497f9722a3daafe3b4186f6b6457e060405160405180910390a3600160009054906101000a900473ffffffffffffffffffffffffffffffffffffffff166000806101000a81548173ffffffffffffffffffffffffffffffffffffffff021916908373ffffffffffffffffffffffffffffffffffffffff1602179055506000600160006101000a81548173ffffffffffffffffffffffffffffffffffffffff021916908373ffffffffffffffffffffffffffffffffffffffff160217905550565b6002828051602081018201805184825260208301602085012081835280955050505050506020528060005260406000206000915091509054906101000a900460000b81565b60058054600181600116156101000203166002900480601f0160208091040260200160405190810160405280929190818152602001828054600181600116156101000203166002900480156116cb5780601f106116a0576101008083540402835291602001916116cb565b820191906000526020600020905b8154815290600101906020018083116116ae57829003601f168201915b505050505081565b60065481565b600083836002826040518082805190602001908083835b6020831061171357805182526020820191506020810190506020830392506116f0565b6001836020036101000a038019825116818451168082178552505050505050905001915050908152602001604051809103902060008273ffffffffffffffffffffffffffffffffffffffff1673ffffffffffffffffffffffffffffffffffffffff16815260200190815260200160002060009054906101000a900460000b60000b6002836040518082805190602001908083835b602083106117ca57805182526020820191506020810190506020830392506117a7565b6001836020036101000a038019825116818451168082178552505050505050905001915050908152602001604051809103902060003373ffffffffffffffffffffffffffffffffffffffff1673ffffffffffffffffffffffffffffffffffffffff16815260200190815260200160002060009054906101000a900460000b60000b13806118a357506000809054906101000a900473ffffffffffffffffffffffffffffffffffffffff1673ffffffffffffffffffffffffffffffffffffffff163373ffffffffffffffffffffffffffffffffffffffff16145b6118ac57600080fd5b8360000b6002876040518082805190602001908083835b602083106118e657805182526020820191506020810190506020830392506118c3565b6001836020036101000a038019825116818451168082178552505050505050905001915050908152602001604051809103902060003373ffffffffffffffffffffffffffffffffffffffff1673ffffffffffffffffffffffffffffffffffffffff16815260200190815260200160002060009054906101000a900460000b60000b13806119bf57506000809054906101000a900473ffffffffffffffffffffffffffffffffffffffff1673ffffffffffffffffffffffffffffffffffffffff163373ffffffffffffffffffffffffffffffffffffffff16145b6119c857600080fd5b6119d3868686611ed8565b156119e157600192506119e6565b600092505b50509392505050565b60075481565b60006040518060400160405280600881526020017f73656e74696e656c00000000000000000000000000000000000000000000000081525060018060000b6002836040518082805190602001908083835b60208310611a695780518252602082019150602081019050602083039250611a46565b6001836020036101000a038019825116818451168082178552505050505050905001915050908152602001604051809103902060003373ffffffffffffffffffffffffffffffffffffffff1673ffffffffffffffffffffffffffffffffffffffff16815260200190815260200160002060009054906101000a900460000b60000b1215611af557600080fd5b8486887fb79b51b31bb56746699691712dd8f954973c2a4d2e2af9a24d95194ddde8e01c873360405180806020018373ffffffffffffffffffffffffffffffffffffffff1673ffffffffffffffffffffffffffffffffffffffff168152602001828103825284818151815260200191508051906020019080838360005b83811015611b8d578082015181840152602081019050611b72565b50505050905090810190601f168015611bba5780820380516001836020036101000a031916815260200191505b50935050505060405180910390a4600192505050949350505050565b6000809054906101000a900473ffffffffffffffffffffffffffffffffffffffff1681565b60006040518060400160405280600881526020017f73656e74696e656c00000000000000000000000000000000000000000000000081525060018060000b6002836040518082805190602001908083835b60208310611c6f5780518252602082019150602081019050602083039250611c4c565b6001836020036101000a038019825116818451168082178552505050505050905001915050908152602001604051809103902060003373ffffffffffffffffffffffffffffffffffffffff1673ffffffffffffffffffffffffffffffffffffffff16815260200190815260200160002060009054906101000a900460000b60000b1215611cfb57600080fd5b836006819055503373ffffffffffffffffffffffffffffffffffffffff16847fef3fdf9f666a83028149501260d54c55d95da74ee99ffb55ce21a283e352b75160405160405180910390a3600192505050919050565b600160009054906101000a900473ffffffffffffffffffffffffffffffffffffffff1681565b600360009054906101000a900473ffffffffffffffffffffffffffffffffffffffff1681565b60048054600181600116156101000203166002900480601f016020809104026020016040519081016040528092919081815260200182805460018160011615610100020316600290048015611e335780601f10611e0857610100808354040283529160200191611e33565b820191906000526020600020905b815481529060010190602001808311611e1657829003601f168201915b505050505081565b6000809054906101000a900473ffffffffffffffffffffffffffffffffffffffff1673ffffffffffffffffffffffffffffffffffffffff163373ffffffffffffffffffffffffffffffffffffffff1614611e9457600080fd5b80600160006101000a81548173ffffffffffffffffffffffffffffffffffffffff021916908373ffffffffffffffffffffffffffffffffffffffff16021790555050565b6000816002856040518082805190602001908083835b60208310611f115780518252602082019150602081019050602083039250611eee565b6001836020036101000a038019825116818451168082178552505050505050905001915050908152602001604051809103902060008573ffffffffffffffffffffffffffffffffffffffff1673ffffffffffffffffffffffffffffffffffffffff16815260200190815260200160002060006101000a81548160ff021916908360000b60ff160217905550600190509392505050565b828054600181600116156101000203166002900490600052602060002090601f016020900481019282601f10611fe857805160ff1916838001178555612016565b82800160010185558215612016579182015b82811115612015578251825591602001919060010190611ffa565b5b5090506120239190612027565b5090565b61204991905b8082111561204557600081600090555060010161202d565b5090565b9056fea265627a7a723158209ee749f416bdc6a25e1549342a66beeb4e7c758902c790a40e0ef03d110f1fba64736f6c634300050c0032",
  "source": "/*\n\nCopyright Daniel Iwo, 2020\n*/\n\n\npragma solidity ^0.5.8;\n\ncontract Owned{\n\taddress public owner;\n\taddress public newOwner;\n\t\n\tevent OwnershipTransferred(address indexed _from, address indexed _to);\n\t\n\tconstructor() public{\n\t\towner=msg.sender;\t\n\t}\n\tmodifier onlyOwner{\n\t\trequire(msg.sender==owner);\n\t\t_;\t\n\t}\n\tfunction transferOwnership(address _newOwner) public onlyOwner\n\t{\n\t\tnewOwner=_newOwner;\t\n\t}\n\tfunction acceptOwnership() public{\n\t\trequire(msg.sender==newOwner);\n\t\temit OwnershipTransferred(owner,newOwner);\n\t\towner=newOwner;\n\t\tnewOwner=address(0);\t\n\t}\n\n}\n\ncontract GroupOwned is Owned{\n    \n    event GroupTransferred(address indexed from,address indexed to);\n    \n    //0 for not in , integers count the increasing priority in the group \n    mapping(bytes => mapping(address => int8)) public groups;\n    \n    modifier onlySuperior(bytes memory gname,address subject){\n        require((groups[gname][msg.sender]>groups[gname][subject])||(msg.sender==owner));\n        _;\n    }\n    \n    modifier onlyGroup(bytes memory gname,int8 level)\n    {\n        require(groups[gname][msg.sender]>=level);\n        _;\n    }\n   \n    function groupmod(bytes memory gname,address user,int8 priority) internal returns(bool)\n    {\n        groups[gname][user]=priority;\n        return true;\n    }\n\n    function CGroupMod(bytes memory gname, address user,int8 priority) public onlySuperior(gname,user) returns(bool)\n    {\t\t  \n\t\t  require((groups[gname][msg.sender]>priority)||(msg.sender==owner));\n        if(groupmod(gname,user,priority))\n        {\n            return true;\n        }\n        return false;\n    }  \n }\n \ncontract Child is Owned,GroupOwned\n{\n\taddress public root;\n\t\n\tfunction setRoot(address newroot) public onlyGroup('child_manage',2) returns(bool)\n\t{\n\t\troot=newroot;\n\t\treturn true;\t\n\t}\n} \n\n//owned groupowned\ncontract Registry is Owned,GroupOwned,Child\n{\n\tstring public locale;\n\tstring public focus;\n\t\n\tuint public severity_level;\n\t\n\t//mapping(uint=>)\n\tuint public casecount;\t\n\t\n\tmapping(uint=>address) public entities;\n\t\n\tevent NewCase(uint indexed longitude,uint indexed latitude,uint indexed time,bytes data,address et);\n\tevent RequestSupport(uint indexed longitude,uint indexed latitude,string  indexed asset,uint amount,address et);\n\tevent SeverityLevel(uint indexed level,address indexed et);\n\tevent Message(string indexed message,address indexed et);\n\tevent EntitySet(uint indexed ind,address indexed et);\n\n\tconstructor() public\n\t{\n\t\towner=msg.sender;\n\t\tgroupmod('manage',owner,1);\n\t\tgroupmod('sentinel',owner,1);\n\t}\n\n\t//only new\n\tfunction newCase(uint long,uint lat,uint time,bytes memory data) public onlyGroup('sentinel',1) returns(bool)\n\t{\n\t\temit NewCase(long,lat,time,data,msg.sender);\n\t\treturn true;\n\t}\n\n\tfunction requestSupport(uint longitude,uint latitude,string memory asset,uint amount) public onlyGroup('sentinel',1) returns(bool)\n\t{\n\t\temit RequestSupport(longitude,latitude,asset,amount,msg.sender);\n\t\treturn true;\n\t}\n\n\tfunction severityLevel(uint level) public onlyGroup('sentinel',1) returns(bool)\n\t{\n\t\tseverity_level=level;\n\t\temit SeverityLevel(level,msg.sender);\n\t\treturn true;\n\t}\n\n\tfunction message(string memory _msg) public onlyGroup('sentinel',1) returns(bool)\n\t{\n\t\temit Message(_msg,msg.sender);\n\t\treturn true;\n\t}\n\n\tfunction setLocale(string memory _locale) public onlyGroup('manage',1) returns(bool)\n\t{\n\t\tlocale=_locale;\n\t\treturn true;\n\t}\n\n\tfunction setFocus(string memory _focus) public onlyGroup('manage',1) returns(bool)\n\t{\n\t\tfocus=_focus;\n\t\treturn true;\n\t}\n\n\tfunction setEntity(uint ind,address et) public onlyGroup('manage',1) returns(bool)\n\t{\n\t\tentities[ind]=et;\n\t\temit EntitySet(ind,et);\n\t\treturn true;\n\t}\n\n\n}\n\n",
  "sourcePath": "/home/isdl/Documents/Apps/ETHLondon2020/HealthWarn/contracts/registry.sol",
  "compiler": {
    "name": "solc",
    "version": "0.5.12+commit.7709ece9.Emscripten.clang"
  },
  "schemaVersion": "3.0.18",
  "updatedAt": "2020-03-01T03:44:46.714Z",
  "networkType": "ethereum",
  "devdoc": {
    "methods": {}
  },
  "userdoc": {
    "methods": {}
  }
}